:020000040800F2
:10000000A004002001010008090100080B010008FC
:100010000D0100080F010008110100080000000098
:1000200000000000000000000000000013010008B4
:100030001501000800000000170100081901000860
:100040001B0100081B0100081B0100081B01000820
:100050001B0100081B0100084D02000845030008B1
:10006000690300088D030008B10300081B010008A4
:100070001B0100081B0100081B0100081B010008F0
:100080001B0100081B0100081B0100081B010008E0
:100090001B0100081B0100081B010008D503000814
:1000A0001B010008B10B00081B0100081B01000820
:1000B000D50B0008F50B0008190C00081B010008FF
:1000C0001B0100081B0100081B0100081B010008A0
:1000D0001B010008A50E0008D50E0008050F00083A
:1000E000710200081B0100081B010008DFF80CD09A
:1000F00000F02EF80048004739130008A004002043
:100100000648804706480047FEE7FEE7FEE7FEE7B1
:10011000FEE7FEE7FEE7FEE7FEE7FEE7510B00081D
:10012000ED00000830B50B460146002020220124D6
:1001300009E021FA02F59D4205D303FA02F5491BB5
:1001400004FA02F52844151EA2F10102F1DC30BDCB
:10015000064C074D06E0E06840F0010394E8070014
:1001600098471034AC42F6D3FFF7C4FFB41300082D
:10017000D413000800B587B00121880300F06EFA9F
:1001800001210C2000F08AFA4FF42040ADF818004D
:1001900018208DF81B0003208DF81A0006A92948A5
:1001A00000F084F94FF48040ADF8180004208DF879
:1001B0001B0003208DF81A0006A9224800F076F9EA
:1001C0004FF48050ADF8180010208DF81B0003206C
:1001D0008DF81A0006A91B4800F068F94FF4805109
:1001E000184800F0F0F90021174800F02FFB00201C
:1001F000ADF804004FF48270ADF806004FF40060D3
:10020000ADF808000020ADF80A000120ADF80C00A0
:100210004002ADF80E002020ADF810000020ADF82F
:1002200012000720ADF8140001A9074800F028FBD0
:100230000121054800F00AFB4FF4FA7000F0C6FBFC
:1002400007B000BD000C01400038004010B501208F
:1002500000F018F9012808D10448006810B10349DA
:1002600008688047012000F007F910BD5C000020FD
:1002700010B54FF4806000F005F901280AD130482C
:10028000806A10B12E49886A80474FF4806000F080
:10029000F3F853E04FF4006000F0F4F801280AD1BD
:1002A0002748C06A10B12649C86A80474FF40060E9
:1002B00000F0E2F842E04FF4805000F0E3F801284B
:1002C0000AD11F48006B10B11D49086B80474FF4DD
:1002D000805000F0D1F831E04FF4005000F0D2F837
:1002E00001280AD11648406B10B11549486B804768
:1002F0004FF4005000F0C0F820E04FF4804000F0D0
:10030000C1F801280AD10E48806B10B10C49886BE6
:1003100080474FF4804000F0AFF80FE04FF400400A
:1003200000F0B0F8012809D10548C06B10B10449AC
:10033000C86B80474FF4004000F09EF810BD0000ED
:100340005C00002010B5022000F09CF8012808D1C4
:100350000448406810B1034948688047022000F013
:100360008BF810BD5C00002010B5042000F08AF866
:10037000012808D10448806810B103498868804783
:10038000042000F079F810BD5C00002010B50820B2
:1003900000F078F8012808D10448C06810B103497A
:1003A000C8688047082000F067F810BD5C00002096
:1003B00010B5102000F066F8012808D10448006943
:1003C00010B1034908698047102000F055F810BDAE
:1003D0005C00002010B5202000F054F8012809D15D
:1003E0002448406910B1234948698047202000F023
:1003F00043F83EE0402000F045F8012809D11D48AF
:10040000806910B11B4988698047402000F034F8AA
:100410002FE0802000F036F8012809D11548C06986
:1004200010B11449C8698047802000F025F820E009
:100430004FF4807000F026F801280AD10D48006AB8
:1004400010B10C49086A80474FF4807000F014F82E
:100450000FE04FF4007000F015F8012809D10548AD
:10046000406A10B10349486A80474FF4007000F0B9
:1004700003F810BD5C0000200149086070470000CF
:1004800014040140014600200022074B1B6803EAC8
:100490000102054B14331B680B4013B10AB1012054
:1004A00000E0002070470000000401402DE9F04109
:1004B000024600250026002000230024002791F892
:1004C00003C00CF00F0591F803C00CF0100CBCF148
:1004D000000F03D091F802C04CEA050591F800C066
:1004E000BCF1000F31D0146800202BE04FF0010C5C
:1004F0000CFA00F3B1F800C00CEA03069E4220D1CA
:1005000083004FF00F0C0CFA03F7BC4305FA03FC11
:100510004CEA040491F803C0BCF1280F06D14FF057
:10052000010C0CFA00FCC2F814C00AE091F803C0F8
:10053000BCF1480F05D14FF0010C0CFA00FCC2F8D9
:1005400010C0401C0828D1D31460B1F800C0BCF121
:10055000FF0F34DD546800202EE000F1080C4FF04E
:10056000010808FA0CF3B1F800C00CEA03069E4239
:1005700021D183004FF00F0C0CFA03F7BC4305FAAE
:1005800003FC4CEA040491F803C0BCF1280F05D128
:1005900000F1080C08FA0CF8C2F8148091F803C0B6
:1005A000BCF1480F07D100F1080C4FF0010808FA20
:1005B0000CF8C2F81080401C0828CED35460BDE867
:1005C000F0814161704701617047000070B5002102
:1005D00000230F22C47804B3154C246804F4E064AB
:1005E000C4F5E064210AC1F10403CA40447804FA66
:1005F00003F184781440214309010E4C0678A1557B
:10060000047804F01F050124AC4005786D11AD009D
:1006100005F1E025C5F8004109E0047804F01F0564
:100620000124AC40044D0678761145F8264070BD93
:100630000CED00E000E400E080E100E0024901434D
:10064000024A1160704700000000FA050CED00E05E
:1006500010B54FF4A060FFF7F1FF10BD29B1064AB5
:10066000D2690243044BDA6104E0034AD26982434F
:10067000014BDA61704700000010024029B1064AC0
:1006800012690243044B1A6104E0034A126982436F
:10069000014B1A61704700000010024029B1064A60
:1006A00092690243044B9A6104E0034A92698243CF
:1006B000014B9A61704700000010024029B1064AC0
:1006C000D2680243044BDA6004E0034AD2688243F2
:1006D000014BDA60704700000010024030B5002185
:1006E0000022002400232D4D6D6805F00C0121B17E
:1006F000042905D0082923D105E0294D056022E011
:10070000274D05601FE0254D6D6805F47012234DDF
:100710006D6805F48034022505EB92421CB9214D29
:10072000554305600BE01D4D6D6805F400351DB1A6
:100730001C4D5543056002E0194D5543056002E02C
:10074000174D056000BF00BF144D6D6805F0F00146
:100750000909154D6B5C0568DD4045600F4D6D68FE
:1007600005F4E061090A104D6B5C4568DD40856069
:100770000A4D6D6805F46051C90A0B4D6B5C456804
:10078000DD40C560054D6D6805F44041890B074D9E
:100790006B5CC568B5FBF3F5056130BD0010024028
:1007A00000127A0000093D00000000201000002027
:1007B00070B50446204600F009F805460248007866
:1007C00000B10025284670BD180000202DE9F04139
:1007D000064600274FF480443443204600F0DAFDFB
:1007E00044EAC03084B2204600F068F84FF48044F8
:1007F00000BF204600F0CEFD44EAC03084B220465F
:1008000000F05CF8054601200F49087005F48040AF
:1008100048B9C5F30D07384600F0BCFD80EAE53065
:10082000094908700CE04FF4804444F0010420466C
:1008300000F0B0FD44EAC03084B2204600F03EF83B
:100840003846BDE8F08100001800002021B1028880
:1008500042F04002028004E002884FF6BF731A4063
:10086000028070470246002013890B400BB1012023
:1008700000E00020704701468889704781817047F9
:1008800010B50022028802F441520B884C882343A1
:100890008C882343CC8823430C8923434C892343EE
:1008A0008C892343CC8923431A430280838B4FF2E4
:1008B000FF74234083830B8A038210BD10B5044666
:1008C0004FF480510F48FFF77CFE012000F07EF8C6
:1008D00021460D48FFF7D2FF00BF01210A48FFF76C
:1008E000C1FF0028F9D0012000F070F84FF48051CA
:1008F0000448FFF768FE012000F068F80248FFF79F
:10090000BAFF10BD000C014000380040012808D19A
:100910004FF0E021096941F001014FF0E02211613F
:1009200007E04FF0E021096921F001014FF0E022DA
:100930001161704710B56FF0040000F0F5F80D4834
:1009400000680D49B0FBF1F00C49087008460078CA
:1009500000EB4001C1EBC0104FF6FF7101EAC0008F
:10096000074908800120FFF7D1FF002000F054F86C
:1009700010BD00001C00002000127A0014000020AE
:100980001600002010B501460F4B1B884FF0E024E5
:10099000636123461B6943F00103236100220FE0DA
:1009A00000234FF0E024A36100BF4FF0E02318695B
:1009B00000F001031BB100F48033002BF5D0521C72
:1009C0008A42EDD310BD0000160000200146114AF6
:1009D00012784A434FF0E0235A6100229A611A4686
:1009E000126942F001021A6100BF4FF0E022106963
:1009F00000F001021AB100F48032002AF5D04FF065
:100A0000E022126922F001024FF0E0231A61002275
:100A10009A61704714000020012808D14FF0E021AE
:100A2000096941F002014FF0E022116107E04FF047
:100A3000E021096921F002014FF0E02211617047C5
:100A400010B500F001F810BD0CB500200190009029
:100A50003348006840F480303149086000BF3048B6
:100A6000006800F4003000900198401C019000984C
:100A700018B90198B0F5A06FF1D12948006800F4C9
:100A8000003010B10120009001E00020009000989B
:100A9000012843D12348006840F010002149086034
:100AA0000846006820F0030008600846006840F02F
:100AB000020008601A4840681949486008464068C2
:100AC00048600846406840F48060486008464068D6
:100AD00020F47C1048600846406840F4E810486004
:100AE0000846006840F08070086000BF0C4800684D
:100AF00000F000700028F9D00948406820F0030099
:100B0000074948600846406840F00200486000BF5E
:100B10000348406800F00C000828F9D10CBD000023
:100B20000010024000200240042808D14FF0E021CC
:100B3000096941F004014FF0E022116107E04FF034
:100B4000E021096921F004014FF0E02211617047B2
:100B500010B51348006840F00100114908600846CC
:100B60004068104908400E494860084600680E4930
:100B700008400B4908600846006820F4802008609F
:100B80000846406820F4FE0048604FF41F0088606B
:100B9000FFF756FF4FF000600449086010BD0000E9
:100BA000001002400000FFF8FFFFF6FE08ED00E035
:100BB00010B50648406818B104494868804703E00A
:100BC0000321034800F03AF810BD00004400002063
:100BD000002C014010B50648806818B104498868A7
:100BE000804704E003214FF0804000F027F810BD5B
:100BF0004400002010B50648C06818B10449C86810
:100C0000804703E00321034800F018F810BD0000FE
:100C1000440000200004004010B50648006918B1E7
:100C200004490869804703E00321034800F006F8FF
:100C300010BD00004400002000080040CA430282AA
:100C4000704700002DE9F04186B080460C461546FD
:100C50001E460C9FB8F1010F06D0B8F1020F4ED01E
:100C6000B8F1030F7ED198E0012144F20400FFF7B0
:100C700015FD744800F06AF94FF40070ADF81400E7
:100C800003208DF8160018208DF8170005A96E486E
:100C9000FFF70CFC4FF48060ADF8140004208DF8D1
:100CA000170005A96848FFF701FC25208DF8000012
:100CB000E8B28DF80100F0B28DF802008DF80370F3
:100CC0006846FFF783FC01940020ADF80800ADF8FA
:100CD0000A00ADF80C00ADF810000C20ADF80E00C5
:100CE00001A9584800F0DCF93A4640F22551554830
:100CF00000F0B1F90121534800F01CF900BF0121B7
:100D00004804FFF7ABFC01210520FFF7C7FC4F4863
:100D100000F01CF90420ADF8140003208DF8160033
:100D200018208DF8170005A94748FFF7BFFB0820DA
:100D3000ADF8140004208DF8170005A94248FFF70C
:100D4000B5FB26208DF80000E8B28DF80100F0B266
:100D50008DF802008DF803706846FFF737FC0194A8
:100D6000002000E067E0ADF80800ADF80A00ADF83B
:100D70000C00ADF810000C20ADF80E0001A93348AE
:100D800000F08EF93A4640F22551304800F063F900
:100D900001212E4800F0CEF851E001218804FFF730
:100DA0005DFC01210920FFF779FC294800F0CEF80D
:100DB0004FF48060ADF8140003208DF81600182061
:100DC0008DF8170005A92348FFF770FB4FF400606A
:100DD000ADF8140004208DF8170005A91D48FFF791
:100DE00065FB27208DF80000E8B28DF80100F0B215
:100DF0008DF802008DF803706846FFF7E7FB019459
:100E00000020ADF80800ADF80A00ADF80C00ADF810
:100E100010000C20ADF80E0001A90D4800F040F9BB
:100E20003A4640F22551074800F015F901210848DB
:100E300000F080F803E0002006B0BDE8F08100BFBC
:100E40000120F9E70038014000080140004400405B
:100E500000480040000C01400246012A04D0022A4A
:100E600008D0032A12D10BE00B480088C0F3080019
:100E700008800DE009480088C0F30800088007E0FA
:100E800007480088C0F30800088001E00020704790
:100E900000BF0120FBE7000004380140044400408B
:100EA0000448004008B540F22551084800F0A9F870
:100EB00058B169460120FFF7CFFF0548406820B1CF
:100EC00003484168BDF80000884708BD003801406C
:100ED0003400002008B540F22551084800F091F890
:100EE00058B169460220FFF7B7FF0548806820B176
:100EF00003488168BDF80000884708BD00440040F1
:100F00003400002008B540F22551084800F079F877
:100F100058B169460320FFF79FFF0548C06820B11C
:100F20000348C168BDF80000884708BD004800407C
:100F30003400002021B1828942F40052828104E011
:100F400082894DF6FF731A408281704710B50446BE
:100F50002048844209D101218803FFF7AFFB00211B
:100F60004FF48040FFF7AAFB32E01B48844209D1CE
:100F700001214804FFF782FB00214FF40030FFF706
:100F80007DFB25E01548844209D101218804FFF743
:100F900075FB00214FF48020FFF770FB18E010482C
:100FA000844209D10121C804FFF768FB00214FF4F6
:100FB0000020FFF763FB0BE00A48844208D10121BF
:100FC0000805FFF75BFB00214FF48010FFF756FB8D
:100FD00010BD0000003801400044004000480040BF
:100FE000004C00400050004002460020B1F5007F58
:100FF00000D100BF13880B400BB1012000E000209E
:10100000704770B50246002400230025002040F6FA
:101010006A16B14200D100BFC1F3421501F01F03AF
:10102000012606FA03F3012D02D19689334006E02A
:10103000022D02D1168A334001E0968A33400C1209
:10104000012606FA04F41688344013B10CB10120CD
:1010500000E0002070BDF0B5034600240026002506
:10106000002040F66A17B94200D100BF1846C1F30C
:10107000421401F01F06012707FA06F5012C01D1E1
:101080000C3004E0022C01D1103000E014301AB111
:1010900007682F43076002E00768AF430760F0BDB1
:1010A0002DE9F04786B005460E460024A24600BF53
:1010B000A1460027B08900B100BF2F462C8A4CF60C
:1010C000FF700440F08804432C82AC894EF6F31084
:1010D0000440B08831890843718908430443AC81D6
:1010E000AC8A4FF6FF400440B0890443AC8201A8AB
:1010F000FFF7F4FA1F48874202D1DDF810A001E0A3
:10110000DDF80CA0A88900F4004040B10AEBCA0049
:1011100000EB0A1031684900B0FBF1F807E00AEB78
:10112000CA0000EB0A1031688900B0FBF1F86420B6
:10113000B8FBF0F004012009642101FB1089A889A3
:1011400000F4004040B1322000EBC900B0FBF1F0E8
:1011500000F00700044308E0322000EB091064218E
:10116000B0FBF1F000F00F0004432C8106B0BDE8A5
:10117000F087000000380140C1F308028280704708
:101180000FB4054B10B503A9044A029800F018F8F3
:1011900010BC5DF814FB000015130008300000209F
:1011A00002E008C8121F08C1002AFAD17047704730
:1011B000002001E001C1121F002AFBD1704700008E
:1011C0002DE9FF4F89B09B460446002506E02528FF
:1011D0000BD05A460B999047641C6D1C2078002850
:1011E000F5D10DB02846BDE8F08F0027B8460122A2
:1011F000474900E0074314F8013F203B02FA03F09F
:101200000842F7D120782E2819D114F8010F47F0A1
:1012100004072A280ED06FF02F022078A0F13001A9
:1012200009290CD808EB880102EB410100EB010809
:10123000641CF2E70A98641C50F8048B0A9020782A
:101240000028CED0642808D0692806D075281ED082
:101250005A460B9990476D1C58E00A994FF00A09BD
:1012600001C90A91002802DA40422D2102E0390525
:1012700004D52B218DF82010012103E0F90704D0BB
:101280002021F7E78A4608AE0DE00021FAE70A9927
:101290004FF00A0901C90A91F7E74946FEF742FFF4
:1012A000303106F8011D0028F7D1ADEB060000F142
:1012B0002009780701D44FF00108C84502DDA8EBEA
:1012C000090000E000208046002706E008A85A46F2
:1012D000C05D0B9990476D1C7F1C5745F6DB04E001
:1012E00030205A460B9990476D1CB8F10001A8F1C7
:1012F0000108F5DC05E016F8010B5A460B999047FA
:101300006D1CB9F10001A9F10109F4DC641C65E769
:101310000928010070B504460D46E1B20548FFF703
:101320002BFF00BF40210348FFF75EFE0028F9D0E5
:10133000204670BD0038014008B5FFF789F9FFF776
:10134000F9FAFEF717FF012002231A464FF4E131A4
:101350000090FFF777FC09A0FFF712FF0CE043F6BF
:10136000FF70FFF725FA0446214607A0FFF708FFA4
:101370004FF47A70FFF706FBF1E70000696E6974BD
:10138000206F7665720A000076616C203D2025642E
:10139000200A0000014609B90020704781EA212196
:1013A00081EA211181EAA10181EA610101F00100D4
:1013B000F3E70000D4130008000000203400000010
:1013C000A011000808140008340000206C0400007C
:1013D000B011000800000000010203040102030430
:1013E00006070809020406080000000000000000CB
:1013F00000A24A04000000000000000001020304F3
:081400000607080900000000C6
:04000005080000ED02
:00000001FF
